080220         000000332674000000000001000000000000000000000000000000000000000000000000000000000000000000000000CLEDIG                                                                                              
080289         000000320706000000000001000000000000000000000000000000000000000000000000000000000000000000000000G06                                                                                                 
080289         000000323442000000000002000000000000000000000000000000000000000000000000000000000000000000000000G05                                                                                                 
080289         000000326178000000000003000000000000000000000000000000000000000000000000000000000000000000000000G04                                                                                                 
080289         000000328914000000000004000000000000000000000000000000000000000000000000000000000000000000000000G03                                                                                                 
080289         000000331650000000000005000000000000000000000000000000000000000000000000000000000000000000000000G02                                                                                                 
080289         000000334386000000000006000000000000000000000000000000000000000000000000000000000000000000000000G01                                                                                                 
080289         000000344482000000000007000000000000000000000000000000000000000000000000000000000000000000000000G09                                                                                                 
080289         000000347218000000000008000000000000000000000000000000000000000000000000000000000000000000000000G08                                                                                                 
080289         000000347314000000000009000000000000000000000000000000000000000000000000000000000000000000000000G11                                                                                                 
080289         000000349954000000000010000000000000000000000000000000000000000000000000000000000000000000000000G07                                                                                                 
080289         000000350050000000000011000000000000000000000000000000000000000000000000000000000000000000000000G10                                                                                                 
080224289      000000320530000000000009000000000000000000320706000000000000000000327843000000338770000000000000G06025                                                                                              
080224289      000000322146000000000060000000000000000000320706000000000000000000323554000000346818000000000000G06012                                                                                              
080224289      000000322450000000000068000000000000000000320706000000000000000000345747000000330738000000000000G06079                                                                                              
080224289      000000322738000000000076000000000000000000320706000000000000000000330050000000324594000000000000G06021                                                                                              
080224289      000000322834000000000078000000000000000000320706000000000000000000346978000000341074000000000000G06974                                                                                              
080224289      000000323346000000000086000000000000000000320706000000000000000000334594000000331634000000000000G06089                                                                                              
080224289      000000323554000000000090000000000000000000320706000000000000000000330866000000322146000000000000G06013                                                                                              
080224289      000000323762000000000095000000000000000000320706000000000000000000331074000000342002000000000000G06035                                                                                              
080224289      000000323810000000000097000000000000000000320706000000000000000000331122000000342050000000000000G06064                                                                                              
080224289      000000324098000000000107000000000000000000320706000000000000000000331282000000348770000000000000G06095                                                                                              
080224289      000000324594000000000126000000000000000000320706000000000000000000322738000000332707000000000000G06020                                                                                              
080224289      000000324658000000000129000000000000000000320706000000000000000000331970000000342899000000000000G06045                                                                                              
080224289      000000325970000000000165000000000000000000320706000000000000000000333282000000327826000000000000G06031                                                                                              
080224289      000000326066000000000167000000000000000000320706000000000000000000327826000000350738000000000000G0602B                                                                                              
080224289      000000326306000000000173000000000000000000320706000000000000000000327714000000334594000000000000G06091                                                                                              
080224289      000000326866000000000193000000000000000000320706000000000000000000334178000000328722000000000000G06041                                                                                              
080224289      000000327042000000000198000000000000000000320706000000000000000000334354000000345282000000000000G06074                                                                                              
080224289      000000327250000000000206000000000000000000320706000000000000000000334562000000351922000000000000G06017                                                                                              
080224289      000000327506000000000212000000000000000000320706000000000000000000351202000000345746000000000000G06068                                                                                              
080224289      000000327714000000000217000000000000000000320706000000000000000000335026000000326306000000000000G06092                                                                                              
080224289      000000327778000000000221000000000000000000320706000000000000000000342050000000333331000000000000G06062                                                                                              
080224289      000000327826000000000222000000000000000000320706000000000000000000325970000000326066000000000000G06030                                                                                              
080224289      000000327843000000000224000000000000000000320706000000000000000000335154000000320530000000000000G06026                                                                                              
080224289      000000327890000000000227000000000000000000320706000000000000000000335202000000346130000000000000G06055                                                                                              
080224289      000000327938000000000231000000000000000000320706000000000000000000335250000000346178000000000000G06084                                                                                              
080224289      000000328722000000000258000000000000000000320706000000000000000000326866000000343842000000000000G06040                                                                                              
080224289      000000330050000000000294000000000000000000320706000000000000000000331458000000322738000000000000G06022                                                                                              
080224289      000000330098000000000295000000000000000000320706000000000000000000337410000000331955000000000000G06051                                                                                              
080224289      000000330738000000000318000000000000000000320706000000000000000000322450000000348978000000000000G06078                                                                                              
080224289      000000330866000000000324000000000000000000320706000000000000000000344610000000323554000000000000G06014                                                                                              
080224289      000000331074000000000332000000000000000000320706000000000000000000338386000000323762000000000000G06036                                                                                              
080224289      000000331090000000000333000000000000000000320706000000000000000000338402000000349330000000000000G06006                                                                                              
080224289      000000331122000000000334000000000000000000320706000000000000000000338434000000323810000000000000G06065                                                                                              
080224289      000000331282000000000339000000000000000000320706000000000000000000332354000000324098000000000000G06111                                                                                              
080224289      000000331458000000000344000000000000000000320706000000000000000000338770000000330050000000000000G06023                                                                                              
080224289      000000331634000000000348000000000000000000320706000000000000000000323346000000349874000000000000G06088                                                                                              
080224289      000000331955000000000364000000000000000000320706000000000000000000330098000000344738000000000000G06050                                                                                              
080224289      000000331970000000000365000000000000000000320706000000000000000000339282000000324658000000000000G06046                                                                                              
080224289      000000332354000000000378000000000000000000320706000000000000000000333762000000331282000000000000G06971                                                                                              
080224289      000000332707000000000390000000000000000000320706000000000000000000324594000000334562000000000000G06019                                                                                              
080224289      000000333282000000000407000000000000000000320706000000000000000000334691000000325970000000000000G06032                                                                                              
080224289      000000333298000000000408000000000000000000320706000000000000000000340610000000351538000000000000G06002                                                                                              
080224289      000000333331000000000414000000000000000000320706000000000000000000327778000000341618000000000000G06061                                                                                              
080224289      000000333762000000000423000000000000000000320706000000000000000000341074000000332354000000000000G06972                                                                                              
080224289      000000334178000000000438000000000000000000320706000000000000000000335586000000326866000000000000G06042                                                                                              
080224289      000000334354000000000443000000000000000000320706000000000000000000341666000000327042000000000000G06075                                                                                              
080224289      000000334562000000000446000000000000000000320706000000000000000000332707000000327250000000000000G06018                                                                                              
080224289      000000334594000000000447000000000000000000320706000000000000000000326306000000323346000000000000G06090                                                                                              
080224289      000000334691000000000449000000000000000000320706000000000000000000342002000000333282000000000000G06033                                                                                              
080224289      000000335026000000000460000000000000000000320706000000000000000000348770000000327714000000000000G06093                                                                                              
080224289      000000335154000000000467000000000000000000320706000000000000000000342466000000327843000000000000G06027                                                                                              
080224289      000000335202000000000468000000000000000000320706000000000000000000342514000000327890000000000000G06056                                                                                              
080224289      000000335250000000000470000000000000000000320706000000000000000000342562000000327938000000000000G06085                                                                                              
080224289      000000335586000000000484000000000000000000320706000000000000000000342899000000334178000000000000G06043                                                                                              
080224289      000000336562000000000511000000000000000000320706000000000000000000337970000000344850000000000000G06071                                                                                              
080224289      000000337410000000000531000000000000000000320706000000000000000000338818000000330098000000000000G06052                                                                                              
080224289      000000337427000000000533000000000000000000320706000000000000000000348674000000345714000000000000G06009                                                                                              
080224289      000000337458000000000535000000000000000000320706000000000000000000338866000000345747000000000000G06081                                                                                              
080224289      000000337970000000000547000000000000000000320706000000000000000000345282000000336562000000000000G06072                                                                                              
080224289      000000338386000000000559000000000000000000320706000000000000000000345698000000331074000000000000G06037                                                                                              
080224289      000000338402000000000561000000000000000000320706000000000000000000345714000000331090000000000000G06007                                                                                              
080224289      000000338434000000000562000000000000000000320706000000000000000000345746000000331122000000000000G06066                                                                                              
080224289      000000338770000000000581000000000000000000320706000000000000000000320530000000331458000000000000G06024                                                                                              
080224289      000000338818000000000583000000000000000000320706000000000000000000346130000000337410000000000000G06053                                                                                              
080224289      000000338866000000000584000000000000000000320706000000000000000000346178000000337458000000000000G06082                                                                                              
080224289      000000339282000000000599000000000000000000320706000000000000000000346594000000331970000000000000G06047                                                                                              
080224289      000000340610000000000640000000000000000000320706000000000000000000342018000000333298000000000000G06003                                                                                              
080224289      000000340611000000000641000000000000000000320706000000000000000000350738000000342466000000000000G06029                                                                                              
080224289      000000341074000000000649000000000000000000320706000000000000000000322834000000333762000000000000G06973                                                                                              
080224289      000000341618000000000669000000000000000000320706000000000000000000333331000000347970000000000000G06060                                                                                              
080224289      000000341666000000000672000000000000000000320706000000000000000000348978000000334354000000000000G06076                                                                                              
080224289      000000342002000000000689000000000000000000320706000000000000000000323762000000334691000000000000G06034                                                                                              
080224289      000000342018000000000691000000000000000000320706000000000000000000349330000000340610000000000000G06004                                                                                              
080224289      000000342050000000000692000000000000000000320706000000000000000000323810000000327778000000000000G06063                                                                                              
080224289      000000342466000000000708000000000000000000320706000000000000000000340611000000335154000000000000G06028                                                                                              
080224289      000000342514000000000710000000000000000000320706000000000000000000349826000000335202000000000000G06057                                                                                              
080224289      000000342562000000000711000000000000000000320706000000000000000000349874000000335250000000000000G06086                                                                                              
080224289      000000342899000000000722000000000000000000320706000000000000000000324658000000335586000000000000G06044                                                                                              
080224289      000000343842000000000752000000000000000000320706000000000000000000328722000000345698000000000000G06039                                                                                              
080224289      000000344610000000000771000000000000000000320706000000000000000000351922000000330866000000000000G06015                                                                                              
080224289      000000344738000000000779000000000000000000320706000000000000000000331955000000346594000000000000G06049                                                                                              
080224289      000000344850000000000785000000000000000000320706000000000000000000336562000000351202000000000000G06070                                                                                              
080224289      000000345282000000000795000000000000000000320706000000000000000000327042000000337970000000000000G06073                                                                                              
080224289      000000345698000000000815000000000000000000320706000000000000000000343842000000338386000000000000G06038                                                                                              
080224289      000000345714000000000816000000000000000000320706000000000000000000337427000000338402000000000000G06008                                                                                              
080224289      000000345746000000000817000000000000000000320706000000000000000000327506000000338434000000000000G06067                                                                                              
080224289      000000345747000000000818000000000000000000320706000000000000000000337458000000322450000000000000G06080                                                                                              
080224289      000000346130000000000829000000000000000000320706000000000000000000327890000000338818000000000000G06054                                                                                              
080224289      000000346178000000000832000000000000000000320706000000000000000000327938000000338866000000000000G06083                                                                                              
080224289      000000346594000000000848000000000000000000320706000000000000000000344738000000339282000000000000G06048                                                                                              
080224289      000000346818000000000854000000000000000000320706000000000000000000322146000000348674000000000000G06011                                                                                              
080224289      000000346978000000000857000000000000000000320706000000000000000000000000000000322834000000000000G06999                                                                                              
080224289      000000347970000000000890000000000000000000320706000000000000000000341618000000349826000000000000G06059                                                                                              
080224289      000000348674000000000910000000000000000000320706000000000000000000346818000000337427000000000000G06010                                                                                              
080224289      000000348770000000000914000000000000000000320706000000000000000000324098000000335026000000000000G06094                                                                                              
080224289      000000348978000000000920000000000000000000320706000000000000000000330738000000341666000000000000G06077                                                                                              
080224289      000000349330000000000928000000000000000000320706000000000000000000331090000000342018000000000000G06005                                                                                              
080224289      000000349826000000000941000000000000000000320706000000000000000000347970000000342514000000000000G06058                                                                                              
080224289      000000349874000000000942000000000000000000320706000000000000000000331634000000342562000000000000G06087                                                                                              
080224289      000000350738000000000972000000000000000000320706000000000000000000326066000000340611000000000000G0602A                                                                                              
080224289      000000351202000000000991000000000000000000320706000000000000000000344850000000327506000000000000G06069                                                                                              
080224289      000000351538000000001001000000000000000000320706000000000000000000333298000000000000000000000000G06001                                                                                              
080224289      000000351922000000001009000000000000000000320706000000000000000000327250000000344610000000000000G06016                                                                                              
080224289      000000320066000000000003000000000000000000323442000000000000000000347458000000339090000000000000G05NHJ100                                                                                           
080224289      000000320498000000000008000000000000000000323442000000000000000000000000000000330978000000000000G05NOO100                                                                                           
080224289      000000323826000000000098000000000000000000323442000000000000000000332194000000329762000000000000G05NDI100                                                                                           
080224289      000000326546000000000183000000000000000000323442000000000000000000329762000000343906000000000000G05MJD091                                                                                           
080224289      000000329122000000000265000000000000000000323442000000000000000000330850000000343762000000000000G05GEA102                                                                                           
080224289      000000329762000000000283000000000000000000323442000000000000000000323826000000326546000000000000G05MLT021                                                                                           
080224289      000000330850000000000322000000000000000000323442000000000000000000343906000000329122000000000000G05GLB081                                                                                           
080224289      000000330978000000000329000000000000000000323442000000000000000000320498000000347458000000000000G05NHR100                                                                                           
080224289      000000332051000000000370000000000000000000323442000000000000000000343762000000000000000000000000G05GDE310                                                                                           
080224289      000000332194000000000374000000000000000000323442000000000000000000339090000000323826000000000000G05NDO100                                                                                           
080224289      000000339090000000000593000000000000000000323442000000000000000000320066000000332194000000000000G05NHI100                                                                                           
080224289      000000343762000000000750000000000000000000323442000000000000000000329122000000332051000000000000G05GDE610                                                                                           
080224289      000000343906000000000754000000000000000000323442000000000000000000326546000000330850000000000000G05MJB091                                                                                           
080224289      000000347458000000000871000000000000000000323442000000000000000000330978000000320066000000000000G05NHO100                                                                                           
080224289      000000320018000000000001000000000000000000326178000000000000000000345778000000323218000000000000G04CO090                                                                                            
080224289      000000321618000000000041000000000000000000326178000000000000000000341154000000327842000000000000G04CO063                                                                                            
080224289      000000322354000000000066000000000000000000326178000000000000000000329442000000328578000000000000G04CO081                                                                                            
080224289      000000323218000000000085000000000000000000326178000000000000000000320018000000329442000000000000G04CO086                                                                                            
080224289      000000324674000000000130000000000000000000326178000000000000000000350434000000330898000000000000G04CO022                                                                                            
080224289      000000325410000000000155000000000000000000326178000000000000000000351170000000329426000000000000G04CO040                                                                                            
080224289      000000325506000000000157000000000000000000326178000000000000000000351266000000331730000000000000G04CO071                                                                                            
080224289      000000325538000000000158000000000000000000326178000000000000000000348098000000331762000000000000G04CO027                                                                                            
080224289      000000326370000000000176000000000000000000326178000000000000000000328578000000332594000000000000G04CO076                                                                                            
080224289      000000327010000000000196000000000000000000326178000000000000000000346546000000333234000000000000G04CO013                                                                                            
080224289      000000327842000000000223000000000000000000326178000000000000000000321618000000334066000000000000G04CO062                                                                                            
080224289      000000328578000000000252000000000000000000326178000000000000000000322354000000326370000000000000G04CO080                                                                                            
080224289      000000328610000000000253000000000000000000326178000000000000000000337122000000334834000000000000G04CO019                                                                                            
080224289      000000329426000000000275000000000000000000326178000000000000000000325410000000335650000000000000G04CO035                                                                                            
080224289      000000329442000000000276000000000000000000326178000000000000000000323218000000322354000000000000G04CO085                                                                                            
080224289      000000330898000000000325000000000000000000326178000000000000000000324674000000337122000000000000G04CO021                                                                                            
080224289      000000331730000000000354000000000000000000326178000000000000000000325506000000334930000000000000G04CO070                                                                                            
080224289      000000331762000000000355000000000000000000326178000000000000000000325538000000337986000000000000G04CO026                                                                                            
080224289      000000332594000000000385000000000000000000326178000000000000000000326370000000351266000000000000G04CO075                                                                                            
080224289      000000333234000000000403000000000000000000326178000000000000000000327010000000339458000000000000G04CO012                                                                                            
080224289      000000334066000000000433000000000000000000326178000000000000000000327842000000340290000000000000G04CO061                                                                                            
080224289      000000334098000000000435000000000000000000326178000000000000000000334834000000340322000000000000G04CO017                                                                                            
080224289      000000334834000000000452000000000000000000326178000000000000000000328610000000334098000000000000G04CO018                                                                                            
080224289      000000334930000000000456000000000000000000326178000000000000000000331730000000341154000000000000G04CO066                                                                                            
080224289      000000334931000000000457000000000000000000326178000000000000000000000000000000341155000000000000G04CO099                                                                                            
080224289      000000335650000000000487000000000000000000326178000000000000000000329426000000341874000000000000G04CO034                                                                                            
080224289      000000337122000000000525000000000000000000326178000000000000000000330898000000328610000000000000G04CO020                                                                                            
080224289      000000337986000000000548000000000000000000326178000000000000000000331762000000344210000000000000G04CO025                                                                                            
080224289      000000339458000000000608000000000000000000326178000000000000000000333234000000345682000000000000G04CO011                                                                                            
080224289      000000340290000000000631000000000000000000326178000000000000000000334066000000344946000000000000G04CO060                                                                                            
080224289      000000340322000000000632000000000000000000326178000000000000000000334098000000346546000000000000G04CO016                                                                                            
080224289      000000341154000000000652000000000000000000326178000000000000000000334930000000321618000000000000G04CO065                                                                                            
080224289      000000341155000000000653000000000000000000326178000000000000000000334931000000345778000000000000G04CO098                                                                                            
080224289      000000341874000000000686000000000000000000326178000000000000000000335650000000348098000000000000G04CO033                                                                                            
080224289      000000344210000000000761000000000000000000326178000000000000000000337986000000350434000000000000G04CO024                                                                                            
080224289      000000344946000000000788000000000000000000326178000000000000000000340290000000351170000000000000G04CO042                                                                                            
080224289      000000345682000000000813000000000000000000326178000000000000000000339458000000000000000000000000G04CO010                                                                                            
080224289      000000345778000000000819000000000000000000326178000000000000000000341155000000320018000000000000G04CO091                                                                                            
080224289      000000346546000000000846000000000000000000326178000000000000000000340322000000327010000000000000G04CO015                                                                                            
080224289      000000348098000000000895000000000000000000326178000000000000000000341874000000325538000000000000G04CO032                                                                                            
080224289      000000350434000000000965000000000000000000326178000000000000000000344210000000324674000000000000G04CO023                                                                                            
080224289      000000351170000000000989000000000000000000326178000000000000000000344946000000325410000000000000G04CO041                                                                                            
080224289      000000351266000000000992000000000000000000326178000000000000000000332594000000325506000000000000G04CO072                                                                                            
080224289      000000326307000000000174000000000000000000328914000000000000000000341156000000334851000000000000G03DMCI                                                                                             
080224289      000000330530000000000311000000000000000000328914000000000000000000000000000000333266000000000000G03MMP0000004                                                                                       
080224289      000000333266000000000405000000000000000000328914000000000000000000330530000000336002000000000000G03MMP0000003                                                                                       
080224289      000000334851000000000454000000000000000000328914000000000000000000326307000000000000000000000000G03DMCC                                                                                             
080224289      000000336002000000000496000000000000000000328914000000000000000000333266000000338738000000000000G03MMP0000002                                                                                       
080224289      000000336818000000000516000000000000000000328914000000000000000000347682000000341156000000000000G03MGF201NTRT                                                                                       
080224289      000000338738000000000578000000000000000000328914000000000000000000336002000000347682000000000000G03MMP0000001                                                                                       
080224289      000000341156000000000654000000000000000000328914000000000000000000336818000000326307000000000000G03DMCP                                                                                             
080224289      000000347682000000000879000000000000000000328914000000000000000000338738000000336818000000000000G03MKS101NOSQ                                                                                       
080224289      000000321106000000000020000000000000000000334386000000000000000000350354000000323842000000000000G01CIC0000024                                                                                       
080224289      000000321762000000000045000000000000000000334386000000000000000000351010000000324498000000000000G01CIC0000006                                                                                       
080224289      000000323842000000000099000000000000000000334386000000000000000000321106000000326578000000000000G01CIC0000023                                                                                       
080224289      000000324498000000000120000000000000000000334386000000000000000000321762000000327234000000000000G01CIC0000005                                                                                       
080224289      000000326482000000000179000000000000000000334386000000000000000000332050000000329218000000000000G01CIC0000019                                                                                       
080224289      000000326578000000000184000000000000000000334386000000000000000000323842000000329314000000000000G01CIC0000022                                                                                       
080224289      000000327234000000000205000000000000000000334386000000000000000000324498000000329970000000000000G01CIC0000004                                                                                       
080224289      000000329218000000000268000000000000000000334386000000000000000000326482000000331954000000000000G01CIC0000018                                                                                       
080224289      000000329314000000000271000000000000000000334386000000000000000000326578000000332050000000000000G01CIC0000021                                                                                       
080224289      000000329970000000000290000000000000000000334386000000000000000000327234000000332706000000000000G01CIC0000003                                                                                       
080224289      000000331954000000000363000000000000000000334386000000000000000000329218000000334690000000000000G01CIC0000017                                                                                       
080224289      000000332050000000000369000000000000000000334386000000000000000000329314000000326482000000000000G01CIC0000020                                                                                       
080224289      000000332259000000000376000000000000000000334386000000000000000000000000000000334994000000000000G01CIC0000037                                                                                       
080224289      000000332706000000000389000000000000000000334386000000000000000000329970000000335442000000000000G01CIC0000002                                                                                       
080224289      000000334690000000000448000000000000000000334386000000000000000000331954000000337426000000000000G01CIC0000016                                                                                       
080224289      000000334994000000000459000000000000000000334386000000000000000000332259000000337730000000000000G01CIC0000036                                                                                       
080224289      000000335442000000000477000000000000000000334386000000000000000000332706000000338178000000000000G01CIC0000001                                                                                       
080224289      000000337426000000000532000000000000000000334386000000000000000000334690000000340162000000000000G01CIC0000015                                                                                       
080224289      000000337730000000000542000000000000000000334386000000000000000000334994000000340467000000000000G01CIC0000035                                                                                       
080224289      000000338178000000000553000000000000000000334386000000000000000000335442000000000000000000000000G01CIC0000000                                                                                       
080224289      000000339410000000000605000000000000000000334386000000000000000000351410000000342147000000000000G01CIC0000029                                                                                       
080224289      000000340162000000000625000000000000000000334386000000000000000000337426000000342898000000000000G01CIC0000014                                                                                       
080224289      000000340467000000000636000000000000000000334386000000000000000000337730000000343202000000000000G01CIC0000034                                                                                       
080224289      000000342147000000000695000000000000000000334386000000000000000000339410000000344882000000000000G01CIC0000028                                                                                       
080224289      000000342898000000000721000000000000000000334386000000000000000000340162000000345634000000000000G01CIC0000013                                                                                       
080224289      000000343202000000000732000000000000000000334386000000000000000000340467000000345938000000000000G01CIC0000033                                                                                       
080224289      000000344882000000000787000000000000000000334386000000000000000000342147000000347618000000000000G01CIC0000027                                                                                       
080224289      000000345538000000000805000000000000000000334386000000000000000000351106000000348274000000000000G01CIC0000009                                                                                       
080224289      000000345634000000000809000000000000000000334386000000000000000000342898000000348370000000000000G01CIC0000012                                                                                       
080224289      000000345938000000000825000000000000000000334386000000000000000000343202000000348675000000000000G01CIC0000032                                                                                       
080224289      000000347618000000000877000000000000000000334386000000000000000000344882000000350354000000000000G01CIC0000026                                                                                       
080224289      000000348274000000000901000000000000000000334386000000000000000000345538000000351010000000000000G01CIC0000008                                                                                       
080224289      000000348370000000000904000000000000000000334386000000000000000000345634000000351106000000000000G01CIC0000011                                                                                       
080224289      000000348675000000000911000000000000000000334386000000000000000000345938000000351410000000000000G01CIC0000031                                                                                       
080224289      000000350354000000000961000000000000000000334386000000000000000000347618000000321106000000000000G01CIC0000025                                                                                       
080224289      000000351010000000000980000000000000000000334386000000000000000000348274000000321762000000000000G01CIC0000007                                                                                       
080224289      000000351106000000000985000000000000000000334386000000000000000000348370000000345538000000000000G01CIC0000010                                                                                       
080224289      000000351410000000000998000000000000000000334386000000000000000000348675000000339410000000000000G01CIC0000030                                                                                       
080224289      000000320658000000000012000000000000000000344482000000000000000000340418000000345330000000000000G09A913                                                                                             
080224289      000000320882000000000014000000000000000000344482000000000000000000344306000000324034000000000000G09F503                                                                                             
080224289      000000320930000000000015000000000000000000344482000000000000000000344370000000329490000000000000G09C121                                                                                             
080224289      000000321410000000000032000000000000000000344482000000000000000000344834000000338898000000000000G09F801                                                                                             
080224289      000000321427000000000034000000000000000000344482000000000000000000333602000000329988000000000000G09A808                                                                                             
080224289      000000321554000000000038000000000000000000344482000000000000000000340946000000330099000000000000G09F919                                                                                             
080224289      000000321586000000000039000000000000000000344482000000000000000000345010000000330147000000000000G09S304                                                                                             
080224289      000000321859000000000048000000000000000000344482000000000000000000350690000000330418000000000000G09F213                                                                                             
080224289      000000321860000000000049000000000000000000344482000000000000000000345283000000325010000000000000G09F218                                                                                             
080224289      000000322114000000000059000000000000000000344482000000000000000000345539000000325266000000000000G09F863                                                                                             
080224289      000000322339000000000065000000000000000000344482000000000000000000345779000000330899000000000000G09C131                                                                                             
080224289      000000322355000000000067000000000000000000344482000000000000000000345780000000330914000000000000G09F845                                                                                             
080224289      000000322786000000000077000000000000000000344482000000000000000000346227000000331347000000000000G09F908                                                                                             
080224289      000000323650000000000092000000000000000000344482000000000000000000347075000000333300000000000000G09S901                                                                                             
080224289      000000323778000000000096000000000000000000344482000000000000000000347219000000346227000000000000G09F910                                                                                             
080224289      000000324034000000000103000000000000000000344482000000000000000000320882000000332578000000000000G09F502                                                                                             
080224289      000000324035000000000104000000000000000000344482000000000000000000347459000000327186000000000000G09F507                                                                                             
080224289      000000324099000000000108000000000000000000344482000000000000000000347522000000335811000000000000G09C125                                                                                             
080224289      000000324562000000000122000000000000000000344482000000000000000000347986000000333122000000000000G09F805                                                                                             
080224289      000000325010000000000139000000000000000000344482000000000000000000321860000000333570000000000000G09F217                                                                                             
080224289      000000325058000000000141000000000000000000344482000000000000000000348482000000333602000000000000G09A901                                                                                             
080224289      000000325218000000000148000000000000000000344482000000000000000000348658000000329202000000000000G09F201                                                                                             
080224289      000000325250000000000150000000000000000000344482000000000000000000345586000000333810000000000000G09A203                                                                                             
080224289      000000325266000000000151000000000000000000344482000000000000000000322114000000333826000000000000G09F862                                                                                             
080224289      000000325330000000000152000000000000000000344482000000000000000000348754000000328482000000000000G09A304                                                                                             
080224289      000000326290000000000172000000000000000000344482000000000000000000337811000000334850000000000000G09C153                                                                                             
080224289      000000326514000000000181000000000000000000344482000000000000000000329666000000342627000000000000G09F851                                                                                             
080224289      000000326754000000000189000000000000000000344482000000000000000000338546000000335314000000000000G09A702                                                                                             
080224289      000000326802000000000191000000000000000000344482000000000000000000350226000000335362000000000000G09S905                                                                                             
080224289      000000326834000000000192000000000000000000344482000000000000000000350259000000329987000000000000G09A803                                                                                             
080224289      000000327186000000000203000000000000000000344482000000000000000000324035000000335746000000000000G09F506                                                                                             
080224289      000000327746000000000220000000000000000000344482000000000000000000351186000000328882000000000000G09F840                                                                                             
080224289      000000328386000000000246000000000000000000344482000000000000000000351810000000336946000000000000G09F205                                                                                             
080224289      000000328450000000000248000000000000000000344482000000000000000000351890000000345283000000000000G09F301                                                                                             
080224289      000000328482000000000249000000000000000000344482000000000000000000325330000000337042000000000000G09A303                                                                                             
080224289      000000328498000000000250000000000000000000344482000000000000000000329490000000331651000000000000G09C118                                                                                             
080224289      000000328690000000000255000000000000000000344482000000000000000000336594000000337811000000000000G09C600                                                                                             
080224289      000000328882000000000262000000000000000000344482000000000000000000327746000000337442000000000000G09F832                                                                                             
080224289      000000329202000000000267000000000000000000344482000000000000000000325218000000346322000000000000G09CA05                                                                                             
080224289      000000329490000000000278000000000000000000344482000000000000000000320930000000328498000000000000G09C120                                                                                             
080224289      000000329666000000000280000000000000000000344482000000000000000000349938000000326514000000000000G09F855                                                                                             
080224289      000000329987000000000292000000000000000000344482000000000000000000326834000000338546000000000000G09A802                                                                                             
080224289      000000329988000000000293000000000000000000344482000000000000000000321427000000333139000000000000G09A807                                                                                             
080224289      000000330099000000000296000000000000000000344482000000000000000000321554000000338660000000000000G09F918                                                                                             
080224289      000000330147000000000300000000000000000000344482000000000000000000321586000000333299000000000000G09S303                                                                                             
080224289      000000330418000000000308000000000000000000344482000000000000000000321859000000338963000000000000G09F212                                                                                             
080224289      000000330899000000000326000000000000000000344482000000000000000000322339000000338962000000000000G09C130                                                                                             
080224289      000000330914000000000327000000000000000000344482000000000000000000322355000000339474000000000000G09F844                                                                                             
080224289      000000331347000000000342000000000000000000344482000000000000000000322786000000345539000000000000G09F907                                                                                             
080224289      000000331538000000000346000000000000000000344482000000000000000000347523000000340099000000000000G09F209                                                                                             
080224289      000000331651000000000351000000000000000000344482000000000000000000328498000000340210000000000000G09C117                                                                                             
080224289      000000331714000000000353000000000000000000344482000000000000000000335314000000340274000000000000G09A403                                                                                             
080224289      000000331858000000000358000000000000000000344482000000000000000000340210000000340418000000000000G09C101                                                                                             
080224289      000000332403000000000381000000000000000000344482000000000000000000341842000000340946000000000000G09S202                                                                                             
080224289      000000332578000000000384000000000000000000344482000000000000000000324034000000341138000000000000G09F501                                                                                             
080224289      000000332834000000000395000000000000000000344482000000000000000000342370000000341379000000000000G09F859                                                                                             
080224289      000000333122000000000400000000000000000000344482000000000000000000324562000000341682000000000000G09F804                                                                                             
080224289      000000333139000000000402000000000000000000344482000000000000000000329988000000341699000000000000G09A806                                                                                             
080224289      000000333299000000000409000000000000000000344482000000000000000000330147000000341842000000000000G09S302                                                                                             
080224289      000000333300000000000410000000000000000000344482000000000000000000323650000000336450000000000000G09S307                                                                                             
080224289      000000333570000000000417000000000000000000344482000000000000000000325010000000350690000000000000G09F216                                                                                             
080224289      000000333602000000000418000000000000000000344482000000000000000000325058000000321427000000000000G09A900                                                                                             
080224289      000000333810000000000426000000000000000000344482000000000000000000325250000000342354000000000000G09A202                                                                                             
080224289      000000333826000000000427000000000000000000344482000000000000000000325266000000342370000000000000G09F861                                                                                             
080224289      000000334067000000000434000000000000000000344482000000000000000000343394000000337218000000000000G09C134                                                                                             
080224289      000000334850000000000453000000000000000000344482000000000000000000326290000000343394000000000000G09C152                                                                                             
080224289      000000335314000000000475000000000000000000344482000000000000000000326754000000331714000000000000G09A701                                                                                             
080224289      000000335362000000000476000000000000000000344482000000000000000000326802000000343922000000000000G09S904                                                                                             
080224289      000000335506000000000480000000000000000000344482000000000000000000341811000000338659000000000000G09F913                                                                                             
080224289      000000335746000000000489000000000000000000344482000000000000000000327186000000344306000000000000G09F505                                                                                             
080224289      000000335811000000000494000000000000000000344482000000000000000000324099000000344370000000000000G09C123                                                                                             
080224289      000000336274000000000504000000000000000000344482000000000000000000345986000000344835000000000000G09F808                                                                                             
080224289      000000336450000000000507000000000000000000344482000000000000000000333300000000345010000000000000G09S306                                                                                             
080224289      000000336594000000000512000000000000000000344482000000000000000000346322000000328690000000000000G09C700                                                                                             
080224289      000000336946000000000520000000000000000000344482000000000000000000328386000000340098000000000000G09F204                                                                                             
080224289      000000337042000000000523000000000000000000344482000000000000000000328482000000345586000000000000G09A302                                                                                             
080224289      000000337218000000000527000000000000000000344482000000000000000000334067000000345779000000000000G09C133                                                                                             
080224289      000000337442000000000534000000000000000000344482000000000000000000328882000000345986000000000000G09F831                                                                                             
080224289      000000337811000000000544000000000000000000344482000000000000000000328690000000326290000000000000G09C199                                                                                             
080224289      000000338514000000000564000000000000000000344482000000000000000000000000000000347076000000000000G09S908                                                                                             
080224289      000000338546000000000567000000000000000000344482000000000000000000329987000000326754000000000000G09A801                                                                                             
080224289      000000338659000000000571000000000000000000344482000000000000000000335506000000347219000000000000G09F912                                                                                             
080224289      000000338660000000000572000000000000000000344482000000000000000000330099000000341811000000000000G09F917                                                                                             
080224289      000000338898000000000587000000000000000000344482000000000000000000321410000000347459000000000000G09F509                                                                                             
080224289      000000338962000000000589000000000000000000344482000000000000000000330899000000347522000000000000G09C127                                                                                             
080224289      000000338963000000000590000000000000000000344482000000000000000000330418000000347523000000000000G09F211                                                                                             
080224289      000000339474000000000610000000000000000000344482000000000000000000330914000000342626000000000000G09F843                                                                                             
080224289      000000340098000000000623000000000000000000344482000000000000000000336946000000348658000000000000G09F203                                                                                             
080224289      000000340099000000000624000000000000000000344482000000000000000000331538000000343250000000000000G09F208                                                                                             
080224289      000000340194000000000626000000000000000000344482000000000000000000348818000000348754000000000000G09A306                                                                                             
080224289      000000340210000000000627000000000000000000344482000000000000000000331651000000331858000000000000G09C116                                                                                             
080224289      000000340242000000000628000000000000000000344482000000000000000000341138000000343330000000000000G09F400                                                                                             
080224289      000000340274000000000629000000000000000000344482000000000000000000331714000000348818000000000000G09A402                                                                                             
080224289      000000340418000000000634000000000000000000344482000000000000000000331858000000320658000000000000G09C100                                                                                             
080224289      000000340946000000000646000000000000000000344482000000000000000000332403000000321554000000000000G09S201                                                                                             
080224289      000000341138000000000651000000000000000000344482000000000000000000332578000000340242000000000000G09F500                                                                                             
080224289      000000341379000000000660000000000000000000344482000000000000000000332834000000349938000000000000G09F858                                                                                             
080224289      000000341682000000000673000000000000000000344482000000000000000000333122000000344834000000000000G09F803                                                                                             
080224289      000000341699000000000675000000000000000000344482000000000000000000333139000000350259000000000000G09A805                                                                                             
080224289      000000341811000000000682000000000000000000344482000000000000000000338660000000335506000000000000G09F916                                                                                             
080224289      000000341842000000000684000000000000000000344482000000000000000000333299000000332403000000000000G09S301                                                                                             
080224289      000000342354000000000700000000000000000000344482000000000000000000333810000000000000000000000000G09A201                                                                                             
080224289      000000342370000000000701000000000000000000344482000000000000000000333826000000332834000000000000G09F860                                                                                             
080224289      000000342626000000000717000000000000000000344482000000000000000000339474000000351186000000000000G09F842                                                                                             
080224289      000000342627000000000718000000000000000000344482000000000000000000326514000000345780000000000000G09F847                                                                                             
080224289      000000343250000000000735000000000000000000344482000000000000000000340099000000351810000000000000G09F207                                                                                             
080224289      000000343330000000000738000000000000000000344482000000000000000000340242000000351890000000000000G09F303                                                                                             
080224289      000000343394000000000741000000000000000000344482000000000000000000334850000000334067000000000000G09C151                                                                                             
080224289      000000343922000000000755000000000000000000344482000000000000000000335362000000347075000000000000G09S903                                                                                             
080224289      000000344306000000000763000000000000000000344482000000000000000000335746000000320882000000000000G09F504                                                                                             
080224289      000000344370000000000766000000000000000000344482000000000000000000335811000000320930000000000000G09C122                                                                                             
080224289      000000344834000000000783000000000000000000344482000000000000000000341682000000321410000000000000G09F802                                                                                             
080224289      000000344835000000000784000000000000000000344482000000000000000000336274000000347986000000000000G09F807                                                                                             
080224289      000000345010000000000790000000000000000000344482000000000000000000336450000000321586000000000000G09S305                                                                                             
080224289      000000345283000000000796000000000000000000344482000000000000000000328450000000321860000000000000G09F219                                                                                             
080224289      000000345330000000000800000000000000000000344482000000000000000000320658000000348482000000000000G09A903                                                                                             
080224289      000000345539000000000806000000000000000000344482000000000000000000331347000000322114000000000000G09F864                                                                                             
080224289      000000345586000000000808000000000000000000344482000000000000000000337042000000325250000000000000G09A301                                                                                             
080224289      000000345779000000000820000000000000000000344482000000000000000000337218000000322339000000000000G09C132                                                                                             
080224289      000000345780000000000821000000000000000000344482000000000000000000342627000000322355000000000000G09F846                                                                                             
080224289      000000345986000000000826000000000000000000344482000000000000000000337442000000336274000000000000G09F830                                                                                             
080224289      000000346227000000000837000000000000000000344482000000000000000000323778000000322786000000000000G09F909                                                                                             
080224289      000000346322000000000838000000000000000000344482000000000000000000329202000000336594000000000000G09CA03                                                                                             
080224289      000000347075000000000859000000000000000000344482000000000000000000343922000000323650000000000000G09S902                                                                                             
080224289      000000347076000000000860000000000000000000344482000000000000000000338514000000350226000000000000G09S907                                                                                             
080224289      000000347219000000000863000000000000000000344482000000000000000000338659000000323778000000000000G09F911                                                                                             
080224289      000000347459000000000872000000000000000000344482000000000000000000338898000000324035000000000000G09F508                                                                                             
080224289      000000347522000000000873000000000000000000344482000000000000000000338962000000324099000000000000G09C126                                                                                             
080224289      000000347523000000000874000000000000000000344482000000000000000000338963000000331538000000000000G09F210                                                                                             
080224289      000000347986000000000891000000000000000000344482000000000000000000344835000000324562000000000000G09F806                                                                                             
080224289      000000348482000000000907000000000000000000344482000000000000000000345330000000325058000000000000G09A902                                                                                             
080224289      000000348658000000000909000000000000000000344482000000000000000000340098000000325218000000000000G09F202                                                                                             
080224289      000000348754000000000913000000000000000000344482000000000000000000340194000000325330000000000000G09A305                                                                                             
080224289      000000348818000000000916000000000000000000344482000000000000000000340274000000340194000000000000G09A401                                                                                             
080224289      000000349938000000000946000000000000000000344482000000000000000000341379000000329666000000000000G09F857                                                                                             
080224289      000000350226000000000953000000000000000000344482000000000000000000347076000000326802000000000000G09S906                                                                                             
080224289      000000350259000000000955000000000000000000344482000000000000000000341699000000326834000000000000G09A804                                                                                             
080224289      000000350690000000000970000000000000000000344482000000000000000000333570000000321859000000000000G09F214                                                                                             
080224289      000000351186000000000990000000000000000000344482000000000000000000342626000000327746000000000000G09F841                                                                                             
080224289      000000351810000000001007000000000000000000344482000000000000000000343250000000328386000000000000G09F206                                                                                             
080224289      000000351890000000001008000000000000000000344482000000000000000000343330000000328450000000000000G09F302                                                                                             
080224289      000000321523000000000037000000000000000000347218000000000000000000350771000000324258000000000000G08AS    1996                                                                                       
080224289      000000321890000000000051000000000000000000347218000000000000000000351138000000324627000000000000G08AS    2001                                                                                       
080224289      000000324258000000000114000000000000000000347218000000000000000000321523000000350674000000000000G08AS    1995                                                                                       
080224289      000000324627000000000128000000000000000000347218000000000000000000321890000000345299000000000000G08AS    2000                                                                                       
080224289      000000340002000000000618000000000000000000347218000000000000000000000000000000342930000000000000G08MGF   0000                                                                                       
080224289      000000342930000000000724000000000000000000347218000000000000000000340002000000345666000000000000G08AS    2005                                                                                       
080224289      000000345299000000000798000000000000000000347218000000000000000000324627000000348034000000000000G08AS    1999                                                                                       
080224289      000000345666000000000812000000000000000000347218000000000000000000342930000000348402000000000000G08AS    2004                                                                                       
080224289      000000348034000000000894000000000000000000347218000000000000000000345299000000350771000000000000G08AS    1998                                                                                       
080224289      000000348402000000000906000000000000000000347218000000000000000000345666000000351138000000000000G08AS    2003                                                                                       
080224289      000000350307000000000959000000000000000000347218000000000000000000350674000000350402000000000000G08ADH   0000                                                                                       
080224289      000000350402000000000963000000000000000000347218000000000000000000350307000000000000000000000000G08ADE   0000                                                                                       
080224289      000000350674000000000968000000000000000000347218000000000000000000324258000000350307000000000000G08AS    0000                                                                                       
080224289      000000350771000000000975000000000000000000347218000000000000000000348034000000321523000000000000G08AS    1997                                                                                       
080224289      000000351138000000000987000000000000000000347218000000000000000000348402000000321890000000000000G08AS    2002                                                                                       
080224289      000000320210000000000005000000000000000000347314000000000000000000337666000000337074000000000000G112011 004                                                                                         
080224289      000000320242000000000006000000000000000000347314000000000000000000329315000000334771000000000000G112012 269                                                                                         
080224289      000000320562000000000011000000000000000000347314000000000000000000338018000000335091000000000000G112013 501                                                                                         
080224289      000000320722000000000013000000000000000000347314000000000000000000335842000000335252000000000000G112012 292                                                                                         
080224289      000000321107000000000021000000000000000000347314000000000000000000338562000000335635000000000000G112013 296                                                                                         
080224289      000000321154000000000022000000000000000000347314000000000000000000338610000000338018000000000000G112013 503                                                                                         
080224289      000000321202000000000024000000000000000000347314000000000000000000338387000000335730000000000000G112011 299                                                                                         
080224289      000000321234000000000025000000000000000000347314000000000000000000338690000000335762000000000000G112012 278                                                                                         
080224289      000000321235000000000026000000000000000000347314000000000000000000338691000000335763000000000000G112012 321                                                                                         
080224289      000000321250000000000027000000000000000000347314000000000000000000338706000000335778000000000000G112011 506                                                                                         
080224289      000000321266000000000028000000000000000000347314000000000000000000338722000000333650000000000000G112013 251                                                                                         
080224289      000000321314000000000029000000000000000000347314000000000000000000338771000000335842000000000000G112012 294                                                                                         
080224289      000000321619000000000042000000000000000000347314000000000000000000339074000000336147000000000000G112013 325                                                                                         
080224289      000000321634000000000043000000000000000000347314000000000000000000339091000000336162000000000000G112011 011                                                                                         
080224289      000000321714000000000044000000000000000000347314000000000000000000330787000000336242000000000000G112011 328                                                                                         
080224289      000000321826000000000046000000000000000000347314000000000000000000339283000000338691000000000000G112012 323                                                                                         
080224289      000000321861000000000050000000000000000000347314000000000000000000339314000000338722000000000000G112013 253                                                                                         
080224289      000000321906000000000052000000000000000000347314000000000000000000339362000000336434000000000000G112012 042                                                                                         
080224289      000000321954000000000054000000000000000000347314000000000000000000339411000000336482000000000000G112011 256                                                                                         
080224289      000000322019000000000056000000000000000000347314000000000000000000332115000000336546000000000000G112013 289                                                                                         
080224289      000000322020000000000057000000000000000000347314000000000000000000337138000000336547000000000000G112013 332                                                                                         
080224289      000000322226000000000061000000000000000000347314000000000000000000339683000000336754000000000000G112012 287                                                                                         
080224289      000000322227000000000062000000000000000000347314000000000000000000339684000000345138000000000000G112012 330                                                                                         
080224289      000000322258000000000063000000000000000000347314000000000000000000339714000000330642000000000000G112013 260                                                                                         
080224289      000000322451000000000069000000000000000000347314000000000000000000346050000000336978000000000000G112012 019                                                                                         
080224289      000000322452000000000070000000000000000000347314000000000000000000339906000000343170000000000000G112013 001                                                                                         
080224289      000000322498000000000071000000000000000000347314000000000000000000328354000000339362000000000000G112012 044                                                                                         
080224289      000000322578000000000072000000000000000000347314000000000000000000340034000000329938000000000000G112013 510                                                                                         
080224289      000000322610000000000073000000000000000000347314000000000000000000340066000000337138000000000000G112013 334                                                                                         
080224289      000000322626000000000074000000000000000000347314000000000000000000340082000000345540000000000000G112011 020                                                                                         
080224289      000000322706000000000075000000000000000000347314000000000000000000346786000000337234000000000000G112011 337                                                                                         
080224289      000000322946000000000080000000000000000000347314000000000000000000340402000000339810000000000000G112011 103                                                                                         
080224289      000000323010000000000081000000000000000000347314000000000000000000340466000000337538000000000000G112013 341                                                                                         
080224289      000000323138000000000082000000000000000000347314000000000000000000340594000000337666000000000000G112011 006                                                                                         
080224289      000000323348000000000088000000000000000000347314000000000000000000338466000000337874000000000000G112011 272                                                                                         
080224289      000000323602000000000091000000000000000000347314000000000000000000341058000000340466000000000000G112013 343                                                                                         
080224289      000000323698000000000093000000000000000000347314000000000000000000341157000000338226000000000000G112012 501                                                                                         
080224289      000000323858000000000100000000000000000000347314000000000000000000341314000000338387000000000000G112011 301                                                                                         
080224289      000000323938000000000101000000000000000000347314000000000000000000341394000000338466000000000000G112011 274                                                                                         
080224289      000000324002000000000102000000000000000000347314000000000000000000341458000000332386000000000000G112013 350                                                                                         
080224289      000000324036000000000105000000000000000000347314000000000000000000341490000000338562000000000000G112013 298                                                                                         
080224289      000000324082000000000106000000000000000000347314000000000000000000341538000000338610000000000000G112013 505                                                                                         
080224289      000000324178000000000110000000000000000000347314000000000000000000341635000000338706000000000000G112011 508                                                                                         
080224289      000000324243000000000113000000000000000000347314000000000000000000341700000000338771000000000000G112012 296                                                                                         
080224289      000000324290000000000115000000000000000000347314000000000000000000341746000000341157000000000000G112012 503                                                                                         
080224289      000000324338000000000116000000000000000000347314000000000000000000341795000000338868000000000000G112011 281                                                                                         
080224289      000000324370000000000117000000000000000000347314000000000000000000341826000000343331000000000000G112011 110                                                                                         
080224289      000000324402000000000118000000000000000000347314000000000000000000341858000000336786000000000000G112012 251                                                                                         
080224289      000000324466000000000119000000000000000000347314000000000000000000341922000000331826000000000000G112013 010                                                                                         
080224289      000000324546000000000121000000000000000000347314000000000000000000342003000000339074000000000000G112013 327                                                                                         
080224289      000000324563000000000123000000000000000000347314000000000000000000339682000000339091000000000000G112011 013                                                                                         
080224289      000000324754000000000132000000000000000000347314000000000000000000342210000000339283000000000000G112012 325                                                                                         
080224289      000000324786000000000133000000000000000000347314000000000000000000342242000000339314000000000000G112013 255                                                                                         
080224289      000000324882000000000134000000000000000000347314000000000000000000342338000000339411000000000000G112011 258                                                                                         
080224289      000000324931000000000136000000000000000000347314000000000000000000342387000000341795000000000000G112011 283                                                                                         
080224289      000000324994000000000138000000000000000000347314000000000000000000342451000000341858000000000000G112012 253                                                                                         
080224289      000000325154000000000144000000000000000000347314000000000000000000342612000000339682000000000000G112011 015                                                                                         
080224289      000000325155000000000145000000000000000000347314000000000000000000335252000000339683000000000000G112012 289                                                                                         
080224289      000000325156000000000146000000000000000000347314000000000000000000340275000000339684000000000000G112012 332                                                                                         
080224289      000000325186000000000147000000000000000000347314000000000000000000331636000000339714000000000000G112013 262                                                                                         
080224289      000000325219000000000149000000000000000000347314000000000000000000328114000000351346000000000000G112013 048                                                                                         
080224289      000000325378000000000153000000000000000000347314000000000000000000340498000000339906000000000000G112013 003                                                                                         
080224289      000000325394000000000154000000000000000000347314000000000000000000342850000000333779000000000000G112012 260                                                                                         
080224289      000000325539000000000159000000000000000000347314000000000000000000342995000000340066000000000000G112013 336                                                                                         
080224289      000000325554000000000160000000000000000000347314000000000000000000343010000000340082000000000000G112011 022                                                                                         
080224289      000000325586000000000161000000000000000000347314000000000000000000343043000000351731000000000000G112012 001                                                                                         
080224289      000000325714000000000162000000000000000000347314000000000000000000343170000000333074000000000000G112012 510                                                                                         
080224289      000000325746000000000163000000000000000000347314000000000000000000343203000000340275000000000000G112012 334                                                                                         
080224289      000000325874000000000164000000000000000000347314000000000000000000343331000000340402000000000000G112011 105                                                                                         
080224289      000000325971000000000166000000000000000000347314000000000000000000343426000000340498000000000000G112013 005                                                                                         
080224289      000000326067000000000168000000000000000000347314000000000000000000343522000000340594000000000000G112011 008                                                                                         
080224289      000000326146000000000169000000000000000000347314000000000000000000343603000000343010000000000000G112011 024                                                                                         
080224289      000000326147000000000170000000000000000000347314000000000000000000343604000000340674000000000000G112012 341                                                                                         
080224289      000000326179000000000171000000000000000000347314000000000000000000343635000000349090000000000000G112013 271                                                                                         
080224289      000000326530000000000182000000000000000000347314000000000000000000343986000000341058000000000000G112013 345                                                                                         
080224289      000000326690000000000186000000000000000000347314000000000000000000344146000000341490000000000000G112013 300                                                                                         
080224289      000000326738000000000188000000000000000000347314000000000000000000344194000000343604000000000000G112012 343                                                                                         
080224289      000000326770000000000190000000000000000000347314000000000000000000344226000000343635000000000000G112013 273                                                                                         
080224289      000000326867000000000194000000000000000000347314000000000000000000344322000000341394000000000000G112011 276                                                                                         
080224289      000000327011000000000197000000000000000000347314000000000000000000344466000000341538000000000000G112013 507                                                                                         
080224289      000000327138000000000199000000000000000000347314000000000000000000344594000000335522000000000000G112012 350                                                                                         
080224289      000000327171000000000201000000000000000000347314000000000000000000344626000000341700000000000000G112012 298                                                                                         
080224289      000000327172000000000202000000000000000000347314000000000000000000344627000000335554000000000000G112013 280                                                                                         
080224289      000000327218000000000204000000000000000000347314000000000000000000344674000000341746000000000000G112012 505                                                                                         
080224289      000000327298000000000207000000000000000000347314000000000000000000342418000000341826000000000000G112011 112                                                                                         
080224289      000000327378000000000209000000000000000000347314000000000000000000347762000000341314000000000000G112011 305                                                                                         
080224289      000000327394000000000210000000000000000000347314000000000000000000344851000000341922000000000000G112013 012                                                                                         
080224289      000000327538000000000214000000000000000000347314000000000000000000344994000000350450000000000000G112011 040                                                                                         
080224289      000000327602000000000215000000000000000000347314000000000000000000345058000000334962000000000000G112012 010                                                                                         
080224289      000000327682000000000216000000000000000000347314000000000000000000345138000000342210000000000000G112012 327                                                                                         
080224289      000000327715000000000218000000000000000000347314000000000000000000345170000000342242000000000000G112013 257                                                                                         
080224289      000000327859000000000226000000000000000000347314000000000000000000345314000000342387000000000000G112011 285                                                                                         
080224289      000000327891000000000228000000000000000000347314000000000000000000345346000000342418000000000000G112011 114                                                                                         
080224289      000000327922000000000230000000000000000000347314000000000000000000345378000000342451000000000000G112012 255                                                                                         
080224289      000000327987000000000234000000000000000000347314000000000000000000345442000000344851000000000000G112013 014                                                                                         
080224289      000000328082000000000235000000000000000000347314000000000000000000345540000000342612000000000000G112011 017                                                                                         
